{
  "contractName": "MetaMaskInteraction",
  "abi": [
    {
      "stateMutability": "payable",
      "type": "receive",
      "payable": true
    },
    {
      "inputs": [],
      "name": "contractBalance",
      "outputs": [
        {
          "internalType": "uint256",
          "name": "",
          "type": "uint256"
        }
      ],
      "stateMutability": "view",
      "type": "function",
      "constant": true
    },
    {
      "inputs": [],
      "name": "sendEtherToContract",
      "outputs": [],
      "stateMutability": "payable",
      "type": "function",
      "payable": true
    },
    {
      "inputs": [
        {
          "internalType": "address payable",
          "name": "recipient",
          "type": "address"
        },
        {
          "internalType": "uint256",
          "name": "amount",
          "type": "uint256"
        }
      ],
      "name": "redeemEtherToAddress",
      "outputs": [],
      "stateMutability": "nonpayable",
      "type": "function"
    },
    {
      "inputs": [
        {
          "internalType": "address payable",
          "name": "recipient",
          "type": "address"
        },
        {
          "internalType": "uint256",
          "name": "amount",
          "type": "uint256"
        }
      ],
      "name": "sendEtherToAddress",
      "outputs": [],
      "stateMutability": "nonpayable",
      "type": "function"
    }
  ],
  "bytecode": "0x608060405234801561001057600080fd5b5061042c806100206000396000f3fe6080604052600436106100435760003560e01c8063325ec7681461004f5780638b7afe2e14610059578063a127809d14610084578063d7ab265a146100ad5761004a565b3661004a57005b600080fd5b6100576100d6565b005b34801561006557600080fd5b5061006e6100d8565b60405161007b919061030e565b60405180910390f35b34801561009057600080fd5b506100ab60048036038101906100a6919061023d565b6100e0565b005b3480156100b957600080fd5b506100d460048036038101906100cf919061023d565b610185565b005b565b600047905090565b3373ffffffffffffffffffffffffffffffffffffffff163181111561013a576040517f08c379a0000000000000000000000000000000000000000000000000000000008152600401610131906102ce565b60405180910390fd5b8173ffffffffffffffffffffffffffffffffffffffff166108fc829081150290604051600060405180830381858888f19350505050158015610180573d6000803e3d6000fd5b505050565b478111156101c8576040517f08c379a00000000000000000000000000000000000000000000000000000000081526004016101bf906102ee565b60405180910390fd5b8173ffffffffffffffffffffffffffffffffffffffff166108fc829081150290604051600060405180830381858888f1935050505015801561020e573d6000803e3d6000fd5b505050565b600081359050610222816103c8565b92915050565b600081359050610237816103df565b92915050565b6000806040838503121561025057600080fd5b600061025e85828601610213565b925050602061026f85828601610228565b9150509250929050565b6000610286601b83610329565b915061029182610376565b602082019050919050565b60006102a9601d83610329565b91506102b48261039f565b602082019050919050565b6102c88161036c565b82525050565b600060208201905081810360008301526102e781610279565b9050919050565b600060208201905081810360008301526103078161029c565b9050919050565b600060208201905061032360008301846102bf565b92915050565b600082825260208201905092915050565b60006103458261034c565b9050919050565b600073ffffffffffffffffffffffffffffffffffffffff82169050919050565b6000819050919050565b7f496e73756666696369656e742073656e6465722062616c616e63650000000000600082015250565b7f496e73756666696369656e7420636f6e74726163742062616c616e6365000000600082015250565b6103d18161033a565b81146103dc57600080fd5b50565b6103e88161036c565b81146103f357600080fd5b5056fea264697066735822122099102f252126ac835de90e0a8c2218f84ec7ae8d5d2f27b686bbdb633a6e44c064736f6c63430008030033",
  "immutableReferences": {},
  "source": "// SPDX-License-Identifier: MIT\r\npragma solidity ^0.8.0;\r\n\r\ncontract MetaMaskInteraction {\r\n    receive() external payable {}\r\n\r\n    function contractBalance() public view returns (uint256) {\r\n        return address(this).balance;\r\n    }\r\n\r\n    function sendEtherToContract() public payable {}\r\n\r\n    function redeemEtherToAddress(\r\n        address payable recipient,\r\n        uint256 amount\r\n    ) public {\r\n        require(\r\n            amount <= address(this).balance,\r\n            \"Insufficient contract balance\"\r\n        );\r\n        recipient.transfer(amount);\r\n    }\r\n\r\n    function sendEtherToAddress(\r\n        address payable recipient,\r\n        uint256 amount\r\n    ) public {\r\n        require(amount <= msg.sender.balance, \"Insufficient sender balance\");\r\n        recipient.transfer(amount);\r\n    }\r\n}\r\n",
  "sourcePath": "C:\\Users\\jojot\\Desktop\\test_app\\Dapp_truffle\\contracts\\MetaMaskInteraction.sol",
  "compiler": {
    "name": "solc",
    "version": "0.8.3+commit.8d00100c.Emscripten.clang"
  },
  "schemaVersion": "3.4.13",
  "updatedAt": "2023-04-07T05:35:16.305Z",
  "networkType": "ethereum",
  "devdoc": {
    "kind": "dev",
    "methods": {},
    "version": 1
  },
  "userdoc": {
    "kind": "user",
    "methods": {},
    "version": 1
  }
}